:020000040001F9
:1060000080450020818C01009B8C0100B76101005C
:106010000000000000000000000000000000000080
:10602000000000000000000000000000D56001003A
:106030000000000000000000A18C0100A38C010002
:10604000A58C0100A58C0100A58C0100A58C010088
:10605000A58C010000000000D9A40100A58C01005E
:10606000A58C0100A58C0100A58C0100A58C010068
:10607000A58C0100A58C0100A58C0100A58C010058
:10608000A58C0100BFB20100A58C0100A58C010008
:10609000E1B20100A58C01007FB90100A58C0100CF
:1060A000A58C0100A58C010000000000000000008C
:1060B00000000000000000000000000000000000E0
:1060C0000348854605F0D8FC004800475B630100A3
:1060D000804500200648704502D1EFF3098101E0B8
:1060E000EFF30881886902380078024A10470000FF
:1060F000FDFFFFFF71870100401E00BF00BF00BF12
:1061000000BF00BF00BF00BF00BF00BF00BF00BF97
:1061100000BFF1D170470000056885F30888466824
:106120000A4AEFF305839A42304602D1084CA6464C
:106130003047074C064D0646064FF0B4034C034D5E
:10614000024E024FF0B40448004700000000000077
:10615000FFFFFFFF00000021F9FFFFFF401E00BF0F
:1061600000BF00BF00BF00BF00BF00BF00BF00BF37
:1061700000BF00BF00BFF1D1704700008020F2498E
:10618000886013E0FF20F53003F08EFA012040050F
:10619000ED4988604000C860FF20F53003F084FAC4
:1061A00001208005E84988604010C860EAE7FFF7F1
:1061B000E5FFFFF7E3FF00BFBFF34F8FE348E4497C
:1061C000C860BFF34F8F00BF00BFFEE710B50446A5
:1061D0002078002806D0012802D0022806D100E04D
:1061E00000BF00BF204602F05CFC00BF00BF10BD36
:1061F00010B50446022C01D0032C02D1204603F036
:1062000005FD204601F079F910BD10B5152000F00C
:1062100070F9162000F06DF9152000F073F91620C2
:1062200000F070F9172000F06DF90021012000F056
:10623000A5F90021022000F0A1F910BD10B5044617
:10624000204600F04DFA204603F0D1F910BD70B59C
:1062500003F026F9044600BF2546002D05D000BFF7
:10626000002211462846FFF7A2FF00BF70BD70B59F
:1062700004F0EAFB40DF044600BF2546002D05D0B0
:1062800000BF002211462846FFF791FF00BF70BDF6
:1062900070B500BFAF4A0A21082004F013FB044682
:1062A00000BF2546002D05D000BF0022114628461C
:1062B000FFF77DFF00BF00BF70BD10B50020A649ED
:1062C0000A680FE0012181401140002909D041B244
:1062D000CC06E40E0123A3409F4C8034236000BF12
:1062E00000BF401C2028EDD310BD70B5B1203CDFAD
:1062F000044600BF2546002D05D000BF00221146F0
:106300002846FFF754FF00BF11DF044600BF2546B3
:10631000002D05D000BF002211462846FFF747FF99
:1063200000BF8E49486913DF044600BF2546002D93
:1063300005D000BF002211462846FFF738FF00BFF6
:10634000162001218140864A116000BFFFF7B5FF8A
:106350008249486904F07AF870BD86B000BF814B6D
:1063600050228149022005F0C2FA054600BF2E46A0
:10637000002E05D000BF002211463046FFF717FF60
:1063800000BF00BFFFF784FF03F0E3FC044600BF3B
:106390002546002D05D000BF002211462846FFF7F4
:1063A00006FF00BF0020059005A860DF044600BF7F
:1063B0002546002D05D000BF002211462846FFF7D4
:1063C000F6FE00BF694805F0C8FA044600BF25463E
:1063D000002D05D000BF002211462846FFF7E7FE3A
:1063E00000BF634805F0C2FA044600BF2546002DF1
:1063F00005D000BF002211462846FFF7D8FE00BF97
:10640000FFF703FF5B4802909621684681732621BF
:1064100001730C214173002101740221C17302A890
:1064200007C800F09DFC044600BF2546002D05D09E
:1064300000BF002211462846FFF7B9FE00BF012029
:1064400000F0C3FC044600BF2546002D05D000BF68
:10645000002211462846FFF7AAFE00BF022000F0E6
:10646000B4FC044600BF2546002D05D000BF002225
:1064700011462846FFF79BFE00BF032000F0A5FC55
:10648000044600BF2546002D05D000BF002211465E
:106490002846FFF78CFE00BF042000F096FC04465F
:1064A00000BF2546002D05D000BF0022114628461A
:1064B000FFF77DFE00BF01200190002201A900F03E
:1064C00090FC00F0A8F805F0C5F80021012000F0CC
:1064D00055F80121022000F051F80121032000F0BD
:1064E0004DF80121042000F049F800BFFFF7BFFE7E
:1064F000FCE703210522120707231B02D2188300A1
:10650000D1507047012181400F4AD160704710B5CA
:10651000194A0021084604F0F6F910BD70B5064688
:106520000C4600BF002C01D1012000E000200546F0
:10653000002D05D100BF002211461046FFF737FE9F
:1065400000BF05F080F970BD000500500400FA0599
:1065500000ED00E09821002000E100E000100010B4
:1065600080E200E00F650100482200203D6201004A
:10657000F16101008FA641A51D650100002906D12A
:106580000246143201239340044A936005E0024618
:10659000143201239340014AD36070470005005034
:1065A00010B50446208850280AD0512802D052281D
:1065B00007D100E006E0A08800221146A9DF01E033
:1065C00000E000BF00BF10BD70B504462088103841
:1065D000030005F0A3FA0906071D0A1D1D1D1C1B5B
:1065E0001D0016E04B4873DF13E000BFA0884A4A45
:1065F00000217FDF0546002D06D000BF0022114696
:106600002846FFF7D4FD00BF00BF02E001E000E034
:1066100000BF00BF70BD30B595B004201490382184
:106620003E4805F016FA01203C49888014A93B48F1
:10663000816002203949087039480068139011A818
:1066400071DF044600BF2546002D06D000BF0022A2
:1066500011462846FFF7ABFD00BF00BF11A84079E7
:10666000000211A98979084302462EA101A805F06C
:1066700041FA01A805F0F8F985B22A4601A913A844
:106680007CDF044600BF2546002D06D000BF002257
:1066900011462846FFF78BFD00BF00BF00211F48B1
:1066A00002F036FE044600BF2546002D06D000BF8E
:1066B000002211462846FFF77AFD00BF00BF1548AB
:1066C00073DF044600BF2546002D06D000BF002220
:1066D00011462846FFF76BFD00BF00BF15B030BD67
:1066E00010B50446204600F0C3FB002811D12088D5
:1066F000F0210840102802D0502808D103E020469D
:10670000FFF762FF04E02046FFF74AFF00E000BF0A
:1067100000BF10BD0020002014200020982200207F
:1067200020BD01007262635F6D657368202325647C
:1067300000000000FE4800780830FE4909788842D1
:1067400001D1012070470020FCE7FA480078F849A1
:106750000978884201D1012070470020FCE7F54804
:106760000078F3490978401AC0B2704770B5044602
:10677000FFF7E0FF002809D000BF042600BF002279
:1067800011460420FFF713FD00BF00BFE948007861
:106790004007400F14214843E74945181422214679
:1067A000284605F03DF9E34801780078401CE14AAD
:1067B00010704807400F70BD70B50546FFF7C5FF64
:1067C000002801D00E2070BDD94800784007400F46
:1067D00014214843D849441814222146284605F07C
:1067E0001FF9D3480078401CD14908700020EAE71F
:1067F00070B506460C46FFF7B2FFA04201DA0E2044
:1068000070BDCB48007800194007400F1421484361
:10681000C949451814222946304605F001F90020DF
:10682000EEE710B5044600212046FFF7E1FF10BD5A
:10683000C0480078BE49087070470EB50A2804DCCD
:106840004100091DBD4A916013E0242804DC410089
:10685000891DBA4A91600CE0B94B0ECB02930192AC
:1068600000910146253989006A465158B34A916022
:1068700000BF4106490EB14A403251610EBD00B51C
:106880008BB0002106A8FFF7B3FF012101A8FFF795
:10689000AFFFFFF764FF022807D1AA48006800286D
:1068A00003D0A848C068002805D008A841796846E8
:1068B000407C814202D001200BB000BD0020FBE7EC
:1068C000F0B591B00446A0480068002801D001202E
:1068D00000E0002010900BA8FFF76EFF9B480068B7
:1068E0000C210840002801D0012000E000200546CE
:1068F00097480078002801D1012000E00020944949
:106900000870002091490860FFF71FFF002803D09E
:106910000220904908709EE0002606A8FFF781FF3C
:106920000798002808D000F088FC07460798B8426E
:1069300001D20020079000BF079800280FD1012046
:106940008249086008A8017B6846007E81420BD11D
:1069500008A8417E4079814206D1012604E07949A8
:10696000F839079800F00BFC6846007E012820D11A
:1069700008A80079714908630020764908707448B6
:1069800000788000744908586C49486002207349B7
:1069900048600798002802D0079800F08EF8002D74
:1069A0001DD108A94879FFF748FF01206C494860CC
:1069B00015E008A800796149C8620120654908709E
:1069C0005E4908984860022064498860002D06D11D
:1069D00008A94879FFF731FF012061490860002EBE
:1069E00002D001205E498860FFF7B9FE012806D178
:1069F0005648006802210843544908602AE00121F2
:106A000001A8FFF7F5FE68460179007E814205D1B5
:106A10006846417C08A8407981421AD06946487C82
:106A2000FFF70BFF49480068022108434749086007
:106A300069460879012806D14448006808210843BE
:106A40004249086005E041480068042108433F4985
:106A5000086000BF00BF08A8007B01281BD1002CE4
:106A600012D0109800280FD00F98002818D0384A5C
:106A70001278002A01D1012200E000229200364B58
:106A800098580F9988470BE00F98002808D00020ED
:106A90000F99884704E00F98002801D00F9880478D
:106AA00011B0F0BD10B502202A490870FF202D4911
:106AB00008700020FFF704FF10BD10B50446284AF7
:106AC000103229492948201800F007FB2549087091
:106AD00010BD10B5044600202549C8630120C863D5
:106AE00000201649C8600320086102208860252024
:106AF000124940314861200E104948622002000AC4
:106B00000002C8610020C86201200863194848617A
:106B10001948886119488863FF2004304863184881
:106B2000C8639420054940314860FF200D4929E0A1
:106B30002A20002029200020D02400200015004019
:106B400024BD01000011004000140040001200406C
:106B5000282000201C2000202020002000130040BE
:106B6000001000402B200020A56A0100E83A000038
:106B7000C01F004006010200250003025B06000062
:106B800055555500087002206A490870FFF750FEFD
:106B9000012001218140684A116000BF00BF01212E
:106BA0008140664A116000BF10BD30B585B0044613
:106BB0002046FFF7DBFD5F480078022849D1607B63
:106BC000FFF73BFE02205E4908606068002808D09D
:106BD00000F033FB05466068A84201D200206060E7
:106BE00000BF2078012816D1564800788000564909
:106BF0000858564948600120554948606068002897
:106C000002D06068FFF759FF00204A49087002204F
:106C1000504948600AE04D49A068486002204D494B
:106C2000886001204A49086042490870606800286D
:106C300006D143480068012108434149086004E047
:106C400043490831606800F09AFA082041494860D9
:106C500029E0FFF714FE002825D1FFF780FD054647
:106C6000022D1FD16846FFF7DCFD684600782178C9
:106C7000884206D1324800680221884330490860C2
:106C80000FE02078012806D12D480068082108432C
:106C90002B49086005E02A48006804210843284978
:106CA000086000BF00BF05B030BD10B5FFF7C0FDE4
:106CB000002023490860401E26498860012024499D
:106CC000086102201B49087023480078FF2803D080
:106CD0002148007800F094FA10BD10B51F48C06834
:106CE000012805D100201D49C8600120FFF7E8FDFB
:106CF00010480078002804D001280FD002280FD1B6
:106D00000DE016484068012807D113480078FF2895
:106D100003D01148007800F073FA00BF00E000BF14
:106D200000BF00200D49086048608860C8600861A5
:106D300010BD00001C20002080E200E000E100E027
:106D400000120040282000202020002000150040D4
:106D500000100040001300402B20002000110040D4
:106D600037B582B00021019101A812DF6846007991
:106D7000002802D1022005B030BD4F48007800281D
:106D800001D00820F7E76D46AB7B2A7B687B029930
:106D900001F034F80446002C01D02046EBE700F067
:106DA000D0FC4649029808606846007B4449087058
:106DB0006846407B434908706846807B42490870BA
:106DC00001203D4908700020D5E710B50446204653
:106DD00001F00DFB10BD10B50446204601F030FB5C
:106DE00010BD70B504460D461646012332462946AD
:106DF000204601F065F870BDF8B504460D4616460C
:106E00001F463B4632462946204601F0E1F8F8BDD0
:106E1000014629480078002801D1082070472748FA
:106E2000006808600020F9E7014623480078002840
:106E300001D1082070472248007808700020F9E747
:106E400001461D480078002801D1082070471D48E0
:106E5000007808700020F9E70146174800780028FC
:106E600001D1082070471848007808600020F9E731
:106E700070B504462088102802D1A08801F0EDF9F1
:106E80000D480078002801D1082070BD20885028C6
:106E900001D00020F9E7A61D304601F041FA054671
:106EA000002D07D0102D05D00F2D01D10020ECE7CB
:106EB0002846EAE70020E8E72C20002030200020C8
:106EC000342000203520002036200020002026E03D
:106ED000FE4982008958012906D001218140FC4ADF
:106EE00012781140002918D001218140F84A127807
:106EF0008A43F7490A700146083101228A40F54960
:106F00008A6001218140F44A12788A43F2490A706A
:106F10000022EE498300CA507047411CC8B20428C1
:106F2000D6DBFF20F8E730B58DB0EC480078FF28BD
:106F30002DD0E648E949097889004058002826D034
:106F40000021E248E54A127892008150E448152178
:106F500089014018E149097889004058E1490968E8
:106F60004018E1490860DD48007810300121814077
:106F7000DE488160D9480078083001218140D54839
:106F80008160FF20D54908700020D64908600024A0
:106F900036E00120A040D0490978084000282DD0D3
:106FA000CA48A1004058002828D0A000D0490D5858
:106FB0000120A040C84909788143C7480170204694
:106FC000103001218140C94881600120A040C94999
:106FD00009780840002808D00120A040C549097858
:106FE0008143C4480170A84707E000206946087142
:106FF000029501A800F026FC00BF00BF601CC4B2CF
:10700000042CC6DB0DB030BDF8B505460E46FFF7C3
:107010005DFF0446FF2C09D100BF042700BF0022FA
:1070200011460420FFF7C3F800BF00BFAE48006858
:107030004019AB49152292018918A20088500021FD
:10704000A248A20081502046103001218140A7486B
:107050004160A000A6490E500120A0409E49097839
:1070600008439D4908702046F8BDF8B505460E4610
:10707000FFF72CFF0446FF2C09D100BF042700BFF7
:10708000002211460420FFF792F800BF00BF012044
:10709000A0409849097808439649087092480068CA
:1070A00040198F49152292018918A20088500021A9
:1070B0008648A200815020461030012181408B4833
:1070C0004160A0008A490E500120A0408249097801
:1070D0000843814908702046F8BDF8B505460E46BC
:1070E0001746FFF7F3FE0446FF2D09D100BF042029
:1070F000009000BF00221146FFF759F800BF00BF03
:1071000000217248A20081502046103001218140A8
:1071100076488160744800684019714915229201CF
:107120008918A200885020461030012181406F4804
:107130004160A0006E490E500120A04066490978C8
:107140000843654908706148A10041186A48512206
:107150001201821820460830C000115066485121A3
:107160000901411820460830C00008184760204631
:10717000083001218140574841602046F8BDF8B5EC
:1071800005460E46FFF7A2FE0446FF2D09D100BFBB
:10719000042700BF002211460420FFF708F800BFB3
:1071A00000BF00214948A200815020461030012133
:1071B00081404E4881604C4800684019484915227A
:1071C00092018918A20088504048A10041184A48FD
:1071D00051221201821820460830C0001150464842
:1071E00051210901411820460830C00008184660A6
:1071F0002046083001218140364841602046F8BDD4
:10720000042819DA0146103101228A4037498A6080
:1072100001218140304A12788A432F490A70014681
:10722000083101228A402B498A6001218140284A85
:1072300012781143264A1170704770B5FFF746FE69
:107240000446FF2C09D100BF042600BF00221146CE
:107250000420FEF7ACFF00BF00BF012120484030F2
:10726000A2008150A00025494018056C0120A040D3
:1072700017490978084316490870284670BDF8B5C3
:1072800005460E46FFF722FE0446FF2C09D100BF3B
:10729000042700BF002211460420FEF788FF00BF2C
:1072A00000BF0E4804700F48066000210748A20086
:1072B000815020461030012181400C4841600E4829
:1072C000512109014018E100455019E0408100407A
:1072D0003A20002000F5014038200020392000200D
:1072E000008000403C20002040200020008300401F
:1072F000702500203B20002000F001400085004068
:1073000018484030A100401817495122120189182D
:10731000E200891848602046083001218140134866
:107320004160F8BD12480068704711490860704715
:1073300000B50020FFF7F9FFFF200E49087000207C
:107340000D49086000210C4841608160C16008203F
:1073500001218140094A116000BF002008490870DE
:1073600000BD00000080004000F0014000F5014039
:10737000402000203A2000204081004000E100E051
:1073800038200020FE4800780830FE4909788842FD
:1073900001D1012070470020FCE7FA480078F84945
:1073A0000978884201D1012070470020FCE7F548A8
:1073B0000078F3490978401AC0B2704770B50446A6
:1073C000FFF7E0FF002809D000BF042600BF00221D
:1073D00011460420FEF7EBFE00BF00BFE94800782D
:1073E0004007400F30214843E749451830222146E5
:1073F000284604F015FBE34801780078401CE14A78
:1074000010704807400F70BD70B50546FFF7C5FF07
:10741000002801D00E2070BDD94800784007400FE9
:1074200030214843D849441830222146284604F0E8
:10743000F7FAD3480078401CD14908700020EAE7E9
:1074400070B506460C46FFF7B2FFA04201DA0E20E7
:1074500070BDCB48007800194007400F30214843E9
:10746000C949451830222946304604F0D9FA00208F
:10747000EEE710B5044600212046FFF7E1FF10BDFE
:10748000C0480078BE490870704710B5044620789F
:10749000030004F043FB050B04080E11150061689E
:1074A000A06888470DE0606880470AE06068804710
:1074B00007E06068804704E0201D00F018FE00BF70
:1074C00000BF00BF10BD70B504460D46002D0FD0A3
:1074D000AE4884600320AE490870AC484860AD48AF
:1074E0000460AD480078002806D1A84850DF03E0CA
:1074F000A6488460A748046070BD10B50446042CFB
:1075000008D0052C0BD0072C0ED10121A348FFF782
:10751000DAFF0AE00121A248FFF7D5FF05E00121CB
:107520009E48FFF7D0FF00E000BF00BF10BD10B5C0
:107530009C490968994A914201D9114601E099494B
:10754000096808460121FFF7BEFF10BD10B507E02E
:107550009548FFF759FF002802D19348FFF795FFA0
:10756000FFF71BFF002803D1904800680028EFD1E7
:1075700010BD8949097800290DD08A490968091880
:107580008B4A914202D987490968501A0121804AE1
:107590001170114648607047F8B5054600207C49D7
:1075A000087001207C4908702B0004F0B7FA05042C
:1075B0005E5B9061A3001420012181407D4A11602F
:1075C00000BF012079490860FFF75AFFFFF7B0FEBE
:1075D00000207949086073480068784908606D4860
:1075E00000687049086009680846C8387449FFF7A0
:1075F0003CFD7449086071480068FFF7BAFF142029
:1076000001218140704A116000BF032100F043F95D
:107610006E4844686E480068002803D16D480068D1
:107620006B4908606A480068A04205D9684800684C
:107630006949081A061902E065480068261A644874
:107640000460F0037D21C90004F0C0F90021634B00
:107650000CCB80185941614A03C26048006801F0B0
:1076600004F852E0FFF739FB4FE0FFF75CFC4CE019
:107670004C4800685A49096840184A490860002087
:10768000574908604C480068401C4B49086000207E
:107690003F4908704B490878FFF7B2FD4149096836
:1076A0000846C8384649FFF7E0FC464908603D48AF
:1076B00000684249096840183D49884204D23F4861
:1076C0000068FFF756FF01E000F09AFF1DE03B481D
:1076D0000068800839490860084600687D21C900B3
:1076E000884204D935480068FFF743FF01E000F005
:1076F00087FF0AE000BF082700BF002211460820CC
:10770000FEF755FD00BF00BF00BF00BF00202249AB
:1077100008701F480078012804D11D48406830498E
:1077200008600CE01A480078032805D100201F49A2
:107730000860FFF7A5FE02E0002029490860144810
:10774000F8BD70B5002014490870162026DF0446E5
:1077500000BF2546002D06D000BF00221146284656
:10776000FEF725FD00BF00BF1E484EDF044600BFE8
:107770002546002D3BD000BF00221146284633E0AD
:107780008D2000208C200020802500205820002003
:10779000682000207C20002070200020A0860100AE
:1077A000B80B000074200020002700208420002057
:1077B00040420F0080E200E094200020882000205A
:1077C0002F7501007820002000E100E000B50040A6
:1077D0009C20002080200020FFFFFF00A020002030
:1077E0009020002099750100FEF7E1FC00BF00BF6A
:1077F00044484068444908604448454908600121BC
:1078000043480068FFF75FFE70BD70B504460D4643
:107810001646002E10D03F48C460856003203E49C4
:1078200008703C4848603D4804603D4800780028A6
:1078300007D1384850DF04E03648C46085603748D7
:10784000046070BD10B504462046FFF7B7FD142054
:1078500001218140334A116000BF10BD10B532488C
:107860000068002800D110BDFFF7E7FC0446284857
:107870000068C838A04201D20020F4E7244800681C
:10788000C838001BEFE728480068002800D170477F
:107890001F480068FBE710B5002819DA234A0307E0
:1078A0001B0F083B9B089B00D2588307DC0EFF236D
:1078B000A3409A438B071B0E8407E40EA3401A4390
:1078C0001A4B0407240F083CA408A4001A5118E01E
:1078D000174A03231B02D21883089B00D258830740
:1078E000DC0EFF23A3409A438B071B0E8407E40E94
:1078F000A3401A430E4B032424021B198408A4003E
:107900001A5110BD00B5004080200020A086010063
:107910007420002048200020682000207C200020C7
:107920007020002000E200E0842000201CED00E038
:1079300000E100E070B5044600202073864801781D
:107940000078401C844A10708806800E8349085CC9
:1079500011460A780978491C7F4B19709106890EE7
:107960007E4A515C0902084319460A780978491C85
:1079700019709106890E794A515C09040843194629
:107980000A780978491C19709106890E734A515C6E
:10799000090608430646A06845082946304604F013
:1079A00015F86F480068401908182060A0686C49F5
:1079B000096840186060607B40084000607370BDDB
:1079C000F7B582B0064667480660674903980860C5
:1079D00066490498087000205F49087000BF01A83C
:1079E00031DF044600BF2546002D06D000BF00222F
:1079F00011462846FEF7DBFB00BF00BF6846007952
:107A0000002828DD544800784021081A6946097981
:107A1000884204DA504800784021081A01E068469C
:107A20000079C5B24D494C4A12788818294632DF90
:107A3000044600BF2746002F06D000BF0022114693
:107A40003846FEF7B4FB00BF00BF4348007840193A
:107A50004149087000BF404800784028BFDB05B0AE
:107A6000F0BD3F480068401C3D49086070473C49F4
:107A70000860704710B504463A4800684000A060AE
:107A8000002060732046FFF755FF10BD017B491CA5
:107A90000173704710B50446607B40084000607376
:107AA00030480068A0602046FFF744FF10BD10B5C5
:107AB0000446A0682B490968884202D92046FFF78E
:107AC000E9FF10BD417B012211434173704770B53E
:107AD00004460D4600202870607BC007C00F0028B8
:107AE0001AD060681E490968884226D8A0684100FB
:107AF0001D4800681B4A12685043814202D2A068A8
:107B0000400004E018480068164909684843A0602E
:107B10002046FFF70FFF10E01149206809688842EE
:107B20000BD8207B11490978884202DA012028709D
:107B300003E0607B01210843607370BD0848006862
:107B400070470146487BC007C00F002801D0486835
:107B500070470868FCE70000AC20002030270020B8
:107B6000A8200020B0200020B4200020B820002051
:107B700030B593B00446607A272806DC6068052893
:107B800003D3FE496068884202D9072013B030BD94
:107B90000020129000BF10A8007A01090901491CB9
:107BA00010A80172007AF0218843103010A90872E1
:107BB00000BF00BF10A8407A01090901491C10A8A4
:107BC0004172407AF0218843103010A9487200BFFA
:107BD00010A8807A06218843811C10A881721C217C
:107BE0000BA803F036FF08A8007B02218843811C04
:107BF00008A80173007B10218843411808A801736D
:107C000000200E9012A8109000200C900F900A9067
:107C100008A8007AF02188430146103108A80172B3
:107C2000007A01090901491C08A80172407AF02173
:107C300088430146103108A84172407A01090901C0
:107C4000491C08A84172807A08218843014608A887
:107C50008172807A10218843014608A88172807A57
:107C60004108490008A88172807A06218843811C56
:107C700008A88172C248017808A88171022168466B
:107C800081842068069060680790217A08A80170B6
:107C9000617A4170142101A803F0DBFE09216846D6
:107CA00081810021C1810921018209A8019006A8D2
:107CB00005900AA80290B34908890B460A3301AA25
:107CC0000BA9A2DF0546002D01D003205EE70020AE
:107CD0005CE730B593B004469B2C02DB072013B061
:107CE00030BD002011901290012110A801720021D6
:107CF000417104210171611C41811C210AA803F01A
:107D0000A8FE11A80D9008A8007A02218843811CC2
:107D100008A80172007A04218843011D08A8017295
:107D2000007A10218843411808A8017200200F90A2
:107D300010900B900E90099008A80079F0218843CC
:107D40000146103108A80171007901090901491C97
:107D500008A801714079F02188430146103108A834
:107D60004171407901090901491C08A841718079D4
:107D700006218843811C08A88171807908218843E5
:107D8000014608A88171807910218843014608A81E
:107D90008171807941084900491C08A8817178489F
:107DA000017808A8817003216846018400210291AE
:107DB000142103A803F04DFE0121684681820021B1
:107DC000C1821C21018309A8049008A8039002A87D
:107DD00007906C4908896B4603AA0AA9A2DF0546E9
:107DE000002D01D003207AE768460088C1B26548BB
:107DF0004068620180188170002070E7FFB587B08D
:107E000005461E469B2D02DD07200BB0F0BD5E48E7
:107E10000078002801D00820F7E701205A490870AF
:107E20000020069006A860DF564805705449574860
:107E300063DF0446002C01D00320E6E750480178B8
:107E400068468175012181824E4A083205A90120C8
:107E5000A0DF0446002C01D00320D6E7089802904A
:107E600003966946099848740D7402A8FFF780FECE
:107E70004448007840010190019803F01BFF4149FC
:107E800048604868019903F0E4FD002709E038469E
:107E9000FFF71FFF0446002C01D02046B5E7781CF1
:107EA000C7B238480078B842F1DC7D21C90071437F
:107EB000084603224B21C900FFF782FD0020A4E7FA
:107EC000FFB585B005460F462F480078002802D13F
:107ED000082009B0F0BD2B480078A84201DB002D36
:107EE00001D11020F5E76846808B1C2801DD0920B0
:107EF000EFE7002623484168681E40010C182088DF
:107F0000401C2080E078C007C00F01214840049049
:107F10000498002808D0E07803210843E070204648
:107F20001030FFF7A7FD03E020461030FFF7BFFD3C
:107F30000898002802D1049800280CD002A871DF0C
:107F4000072202A92046083003F06AFDE0780421E8
:107F50000843E07000BF0E4800880E4988422BD0CD
:107F6000A1786846018000218180039707A80290CC
:107F7000012168468170694605480DE060EA00000D
:107F8000BA20002070270020BB20002030BD010057
:107F9000BC200020FFFF00000088A6DF0646002E60
:107FA00009D0FE48864204D10020C043FC49088025
:107FB00001E003208DE709E0A0783B4607AA0021F5
:107FC000A4DF0646002E01D0032082E7002080E7D0
:107FD000FFB581B004460F461D46F24800780028E0
:107FE00002D1082005B0F0BDEF480078A04201DBC7
:107FF000002C01D11020F5E71C2103980180EA49EB
:108000004A68611E4901511888783B460021039A4D
:10801000A5DF0646002E01D00320E3E7002D0AD09D
:10802000E1484268601E40011018014608310722ED
:10803000284603F0F5FC0020D4E77FB50446D94874
:108040000078002802D1082004B070BD0A200090FA
:10805000D549488901AB6A460021A5DF0546002DB8
:1080600001D00320F0E7684600880A2801D00320E9
:10807000EAE701982060029860606946497B617276
:108080006946087B20720020DEE7F8B50446C54843
:108090000078002801D10820F8BD0027781E206054
:1080A00000251AE0C048406869014018C078C00740
:1080B000C00F002800D10EE0BB4949686A01891849
:1080C00008461030FFF73DFD06462168B14201D950
:1080D0000127266000BF681CC5B2B3480078A842DB
:1080E000E0DC002F01D10520D6E70020D4E7F0B571
:1080F0008BB00546AB480078002802D108200BB0B1
:10810000F0BD2E7A687AA97A0902084309902846B8
:108110000B300890E879C01E87B21C2F01DD0920C2
:10812000EDE7A1480078B04201DB002E01D110201C
:10813000E5E79D484168701E40010C18E078410851
:108140000120884307900798002803D0204610306C
:10815000FFF790FC21880998814203D02046103017
:10816000FFF7A5FC21880998814202DB07980028C7
:108170002BD000233A4630460899FFF7A1FEE0785D
:1081800002210843E070E07804218843E0700998F8
:108190002080072229462046083003F041FC07983A
:1081A000002801D0022100E0002168460173077514
:1081B000C681089804900722294605A8013003F0DB
:1081C0002FFC03A8FEF702F843E0218809988142BA
:1081D0003FD11C200690002306AA19463046FFF71F
:1081E000F7FE0A900A98002801D00A9887E7002035
:1081F0000590A86A6168884207D0E07804210840A9
:10820000002802D10120059005E06846008BB842A5
:1082100001D0012005906846007D002814D001217E
:10822000684601710773C6800898029007222946A4
:1082300003A8013003F0F4FB20461030FFF737FCB1
:1082400001A8FDF7C3FF03E020461030FFF71EFC36
:1082500000BFA86A6060002051E7014650480180D5
:1082600000207047F0B58BB00446174600203870E8
:108270004C480078002802D108200BB0F0BD002641
:1082800048E04948406871014518E878C007C00FC8
:10829000002800D13CE00021099109A928461030AE
:1082A000FFF715FC08A80079002830D0387800289E
:1082B0002DD128461030FFF705FC1C200190711CC1
:1082C000C8B2002301AA02A9FFF782FE0A900A9809
:1082D000002801D00A98D0E7701C207229786172BA
:1082E00028880012A0726846828802A920460B30B6
:1082F00003F096FB68468088C01CE071072229467F
:108300000831204603F08CFB0120387000BF00BF0D
:10831000701CC6B224480078B042B2DC0020ACE742
:10832000F0B587B005461F480078002802D1082024
:1083300007B0F0BD288A1C490989884201D00F2066
:10834000F6E700264DE01848406871014018807833
:108350002988884243D11448406871014418E07864
:108360004108012088430746002F03D020461030E3
:10837000FFF780FBE07807210843E0702088401C6D
:10838000208020461030FFF792FB05A871DF0722FE
:1083900005A92046083003F043FB07E00230000047
:1083A000BC200020BB20002070270020002F01D01F
:1083B000022100E0002168460171297E0173701CD2
:1083C0006946C88028461A300290072205A9C81FAE
:1083D00003F026FB01A8FDF7F9FE0020A8E7701CBA
:1083E000C6B227480078B042ADDC1020A0E710B537
:1083F000044624480078002801D1082010BD2048F8
:108400000078A04201DB002C01D11020F6E71C49C6
:108410004A68611E4901511808461030FFF72AFBCF
:1084200017484168601E40010818C07803210843BE
:1084300013494A68611E49015118C8700020DDE7E0
:10844000014610480078002801D1082070470C48E8
:108450000078884201DB002901D11020F6E70848A6
:108460004268481E40011018C07842085200044873
:108470004368481E40011818C2700020E6E700005B
:1084800070270020BB20002070B58CB004469E48A9
:10849000C0680602360AFFF7E1F90546FF20F5300D
:1084A000854201D900F01CF8002C0AD000BF2078CA
:1084B0000007000F022801D1012000E00020002861
:1084C00001D10CB070BD04206946087001A9204696
:1084D00000F0DDF80B966846FFF7B4F900BFF0E74F
:1084E00000B585B00121684601738848049003A84F
:1084F0000130FEF799FC01216846017000200190CF
:108500006846FEF752FB05B000BDF0B595B0FFF729
:10851000A5F9FF21F531884201D215B0F0BDFEF773
:108520008CFE7B490968401814901498FFF79FFA55
:108530000021089108AA1C2109A8FFF793FE08A8AA
:10854000007800283DD0FEF7B0FB08A8007900288D
:1085500000D100E04020022106460E430BAF6D4CD7
:10856000267000BF08A8C07A1C2801DD1C2001E08D
:1085700008A8C07A05900020A0700598801D607042
:108580002670062209A90131E01C03F049FA394698
:1085900020460930059A03F043FA0021684601732A
:1085A0000D30FEF741FC0021684601700294002066
:1085B000019004906846FEF7F8FA00BFFFF790FFBD
:1085C00000BFFFF760F9069007A8FFF75EFD0546BC
:1085D000002D13D14E480168069808180799884263
:1085E0000CD94D480078FEF70BFE494A07991268EE
:1085F000881A4A49FEF708FD4749087000BF8CE712
:1086000030B58DB0FEF719FE41490968441820467F
:10861000FFF72DFA0CA8FFF738FD0546002D01D015
:108620000DB030BD0C98A04208D23C480190032008
:10863000694608706846FFF705F914E0FFF723F96B
:108640003349096840180C9988420CD9324800789F
:10865000FEF7D6FD2E4A0C991268881A2F49FEF7AC
:10866000D3FC2D49087000BFDAE738B504466846E8
:10867000FEF7CEFB0098FEF72CFAFF202649087083
:1086800023480460FFF72CFFFFF7BAFF38BD70B531
:1086900005460C4668788006800E801FE071E279FE
:1086A000294609312046083003F0BAF90622E91CB0
:1086B000601C03F0B5F92878402108408609002E97
:1086C0001ED0A179C0221140C02901D1012100E0B2
:1086D00000210846002802D0012121700FE0A27974
:1086E000C0231A40402A01D1012200E00022114695
:1086F000002901D0022200E00322227000BF01E025
:108700000020207070BD000000140040898401002A
:10871000C020002084270020C42000200B850100F9
:10872000F8B50646002E01D10E20F8BD3446224D84
:108730002F1BAC4213D02C2F0CD200202C352C3404
:1087400003E021782970641E6D1E0146401C2C290F
:10875000F7D904E02C222146284603F061F90022D3
:108760002C21154802F054FF144908800020DCE752
:1087700070B505460C46002D04D12068FFF7D0FFE8
:10878000206002E00120206000BF00BF70BD70B516
:10879000044600222C21084802F03AFF054607480B
:1087A0000088854201D00B2070BD2C220249204652
:1087B00003F036F90020F7E7503D00207C3D002013
:1087C00070B588B006460C461546E006040E6846AD
:1087D00004712804010E684641718571032003E08D
:1087E000FF2101AA1154401C1C28F9DB1C2201A9FD
:1087F0003046FEF7F6FA08B070BDF8B50446002C16
:1088000001D10E20F8BDA0688107890F002901D190
:10881000012100E00021002901D11020F2E7FB48EE
:108820000078032804D0042803D0052833D102E0BF
:1088300000BF0820E6E760688500F5480068401939
:10884000F4490968884205D90021C943F04801600C
:108850000C20D7E7A768F04800680090EC48008833
:1088600083B2AAB23946EC48006801F08BFD064697
:10887000002E01D03046C5E7E54800684019E449BC
:10888000086008460168E3480068814201D0092673
:1088900000E0002601E0082600BF00BF3046B1E737
:1088A000FFB583B005460E4606988007800F002866
:1088B00001D007B0F0BDD949069802F0F3FE044696
:1088C000002C00D0F5E7D548069A0599006803F01A
:1088D000A7F8069802F061FF0446002C00D0E8E7F4
:1088E00006A9CE4802F06BFF0446002C00D0E0E75A
:1088F00004200090069880080190C8480168029101
:108900006846FFF77AFF0446042C0ED100270AE0E0
:10891000042C07D1FF20913000F0C6FE6846FFF717
:108920006CFF04467F1C032FF2DB002C0BD1BC48EC
:10893000006806994018BA4908602A460C2130465A
:10894000FFF73EFF21E0092C0BD1B54800680699DE
:108950004018B34908602A460A213046FFF730FF25
:1089600013E0AE48006802F0D4FE0746002F0BD09B
:1089700001210846FDF702FE01210220FDF7FEFD60
:1089800001210320FDF7FAFD00BF00BF91E730B5DC
:108990004C682278F8242240D2104C686478240273
:1089A0004D68AD782C432346028083800C7A047393
:1089B0004C8844804C68846030BDFFB581B00E4661
:1089C00014461D46022E02D0042E66D12DE0002052
:1089D00094490870002C15D1284602F09AFE0746EB
:1089E000002F04D090480078401E8F4908708F48AF
:1089F00002880A218E480078FFF7E2FE00208A49AB
:108A0000087011E08848007803280DDA864800785D
:108A1000401C854908700A9883B282B229460198A1
:108A200001F0B0FC074600BF38E0002C0AD17F48B7
:108A3000028808217E480078FFF7C2FE00207D49A9
:108A4000087029E07848007803281EDA0320000324
:108A500080680F229203101A400881B2764801F014
:108A6000C3FC074600BF0097009F002F06D000BF41
:108A7000002211460098FDF79AFB00BF00BF6A482C
:108A80000078401C6849087006E001210320FDF7CA
:108A900075FD00206749087000E000BF00BF05B009
:108AA000F0BDF0B589B00446214605A8FFF76FFF79
:108AB00003A871DF03A84079000203A9897908435C
:108AC00006466846008BB04201D009B0F0BD68464A
:108AD000008B56490880A078554908706846808AFE
:108AE000030003F01BF80F090AC625C62AC62BC6C9
:108AF000AFC6C615C616C600BCE001210846FDF784
:108B00003DFD69460A8BA0780221FFF759FEB1E0CE
:108B1000B0E000210120FDF731FD01210220FDF729
:108B20002DFD01210320FDF729FDFDF7DEFBA1E06E
:108B300000210120FDF722FD9CE09BE03D480078EC
:108B4000002800D0C1E70798C07800060799097986
:108B50000904084307994979090208430799897963
:108B600008432C490860354903C9029101903449F2
:108B700001A801F0E4FB054600BF2F46002F06D0F8
:108B800000BF002211463846FDF711FB00BF00BFB1
:108B90000320000380682A49486027480A4606CA1D
:108BA00006C00320000380680321090389680F229F
:108BB0009203511A490840181F494860052013497B
:108BC00008701D481449086001201A4908700320E4
:108BD00000038068101A400881B2174801F004FCB5
:108BE000054600BF2F46002F06D000BF00221146C9
:108BF0003846FDF7DCFA00BF00BF0C4802880821A8
:108C00000B480078FFF7DCFD34E00000C8200020AE
:108C1000D8200020CC200020EC200020F8200020CC
:108C2000D4200020F4200020F5200020F020002097
:108C3000F2200020F3200020E420002040BD0100AD
:108C4000DC2000200D480078002800D03DE76B466E
:108C50001A8BA0780A21FFF7B3FD0120074908709D
:108C6000079BDA1CA1786B46188B1023FFF718FEC0
:108C700000E000BF00BF00BF27E70000F420002095
:108C80000321094802680A430260084802680A434F
:108C900002600748804707480047FEE7FEE7FEE717
:108CA000FEE7FEE7FEE70000240500405405004013
:108CB0005D8D0100C1600100324833490860704792
:108CC0003248008CC0B2012812D13048808C000795
:108CD000000F00280CD12D48806AF0210840402860
:108CE00006D12A48C06A0840002801D101207047F7
:108CF0000020FCE72548008CC0B201282CD1234875
:108D0000808C0007000F002826D12048806AF021BF
:108D10000840002806D11D48C06A0840002801D13B
:108D2000012070471948806AF0210840102806D1B8
:108D30001648C06A0840002801D10120F1E7134815
:108D4000806AF0210840302806D11048C06A0840E7
:108D5000002801D10120E4E70020E2E710B5FFF789
:108D6000C9FF002805D00A480A494860C8130A49C3
:108D70008861FFF7A5FF002802D00120074988601D
:108D800010BD00000024F400FC200020C00F00F003
:108D9000DFFF07C000050040006C004000060040F7
:108DA000F7B584B004460F4606980678B01C1F2815
:108DB00003DC6078801C1F2802DD0C2007B0F0BDAA
:108DC0001F20801B801E85B20295B11C781802A955
:108DD0007DDF03900398002801D00398EEE7207808
:108DE000022808D168460089A84204DC09200190C5
:108DF000684605890BE0082001906078002804D0BF
:108E00006078A84201DC657801E068460589681C45
:108E1000C2B23046711CCEB23A543046721CD6B241
:108E20000199395406980178A81C0818C1B206980F
:108E300001700020C2E7F8B505460C462078001DF9
:108E40001F2801DD0C20F8BD684679DF0646002E9C
:108E500001D03046F7E703212278501C2070A95436
:108E600019212278501C2070A95420784119684695
:108E7000008800F08AFA2178401820700020E2E78C
:108E8000F8B505460F4616461C466868002801D10D
:108E90000720F8BD2078801C298840181F2801DD94
:108EA0000C20F6E72878401CC1B22278501C2070B4
:108EB000B1542178481C207077542A882378981957
:108EC000696802F0ADFD20782978401820700020F4
:108ED000DFE730B503461078C01C1F2801DD0C20E9
:108EE00030BD02241578681C10704C550A24157882
:108EF000681C10704C551578681C10704B5500207C
:108F0000EEE7FFB587B006461D46109C0020069090
:108F100020780590002747E0B900706841180A885A
:108F20006846028149884181002203A902A865DFC1
:108F300004900498002802D004980BB0F0BD684655
:108F4000017B099881422ED10698002801D000208B
:108F500000E00220019020786946097B41180198C1
:108F600008181F2801DD0C20E7E70698002809D122
:108F70002078401C20702278511C08982170A85439
:108F8000012006902078421903A902A865DF049009
:108F90000498002801D00498CFE720786946097B1F
:108FA0004018207000BF7F1C3088B842B4DC06989F
:108FB000002806D021780598401C081AC1B20598EF
:108FC00029540020B9E7FFB581B0074615460A9E2F
:108FD000009602223846049B0299FFF792FF04464E
:108FE000002C02D0204605B0F0BD00961022294684
:108FF0003846049BFFF785FF0446002C01D020462D
:10900000F1E70020EFE701460888062808DB08881A
:109010001922D201904205DD0888E04A904201D031
:10902000072070474888062808DB48881922D201A3
:10903000904205DD4888D94A904201D00720F0E7E8
:109040000888D64A904208D04888904205D00888BF
:109050004A88904201DD0720E3E70020E1E7F8B508
:1090600006460D4614462078801D1F2801D90C2085
:10907000F8BD3046FFF7C7FF0746002F01D038463E
:10908000F6E705212278501C2070A954122122787D
:10909000501C2070A95422785119308800F075F9BD
:1090A00021784018207022785119708800F06DF9ED
:1090B0002178401820700020DAE7F8B505460E4602
:1090C00014462879801CC7B22078801CC0191F283C
:1090D00001DD0C20F8BD781CC1B22278501C207034
:1090E000B154FF212278501C2070B154227891197C
:1090F000288800F04AF9217840182070A8880028B4
:109100000EDDA868002801D10720E3E7AA882378AC
:109110009819A96802F084FC2078297940182070F9
:109120000020D7E7FEB507460E461446386B0028E8
:1091300001D10720FEBD0020019032E0396B0C22E6
:10914000019850430D182879801CC0B200900098F7
:10915000401CC1B22278501C2070B15416212278D4
:10916000501C2070B15422789119288800F00DF914
:10917000217840182070A88800280EDDA8680028F3
:1091800001D10720D6E7AA8823789819A96802F0A8
:1091900047FC20782979401820700198401CC0B203
:1091A00001903420C15D01988142C7DC0020C1E7F5
:1091B000F8B504460F46164600250020307020788A
:1091C000002809D0324639462046FFF7E9FD05461A
:1091D000002D01D02846F8BDA078002808D03146DF
:1091E0003846FFF728FE0546002D01D02846F2E755
:1091F000A08800280ADD33463A460121201DFFF7EA
:109200003FFE0546002D01D02846E4E7E06800282F
:109210000BD00020E168085632463946FFF759FE68
:109220000546002D01D02846D5E7208A00280CDD10
:109230003B4606220221204610300096FFF7C3FE6F
:109240000546002D01D02846C5E7208B00280CDDFF
:109250003B4607220321204618300096FFF7B3FE55
:109260000546002D01D02846B5E7208C00280CDDEE
:109270003B4615221421204620300096FFF7A3FE1E
:109280000546002D01D02846A5E7A06A002809D090
:1092900032463946A06AFFF7E2FE0546002D01D0AE
:1092A000284698E7E06A002809D032463946E06A45
:1092B000FFF703FF0546002D01D028468BE7342039
:1092C000005D002809DD324639462046FFF72AFFB7
:1092D0000546002D01D028467DE728467BE701465C
:1092E0008888002808D08868002805D08868007819
:1092F00004221040002801D1072070470020FCE71D
:1093000001468888002801DD072070470020FCE71F
:10931000F3B593B00D4600211291119113980028D6
:1093200014D01398FFF7DBFF0446002C02D0204630
:1093300015B0F0BD12AA09A91398FFF739FF04462A
:10934000002C01D02046F3E709AE00E00026002DF6
:1093500013D02846FFF7D4FF0446002C01D0204646
:10936000E6E711AA01A92846FFF722FF0446002CD0
:1093700001D02046DCE701AF00E0002710A8037908
:109380003A46017A304672DFD2E702460A70FF2081
:10939000000210400012487002207047FFFF0000DA
:1093A00001464888B74A1288904206DB4888B54A89
:1093B0005288904201DC012070470020FCE738B55C
:1093C0000546B1480088B14988423BD0B048007892
:1093D000401CAF490870AF48007B097888420FDB1A
:1093E000A849A948008875DF0446002C07D0A94881
:1093F0008069002803D0A74881692046884721E07A
:109400000020A3490870A348007C00280FD03B210E
:109410009D48008876DF0446002C07D09D4880696F
:10942000002803D09B4881692046884700BF99489F
:109430004069002806D0002000909648416968469F
:10944000884700BF38BD70B505461C2229469148A3
:1094500002F0E6FA002090490870286800280BD036
:1094600008228848296802F0DBFA86487ADF044639
:10947000002C08D0204670BD82487BDF0446002CBB
:1094800001D02046F7E70020C0437F490880002034
:109490007F490870814A0021814801F0A1FFEAE775
:1094A00010B57F48006802F013F810BD38B57D484C
:1094B000FFF776FF002829D17748007800280AD0E6
:1094C00074484069002820D000200090714841690C
:1094D0006846884719E06E480078002802D16D4838
:1094E000456801E06B488568002229466C480068A1
:1094F00001F0BDFF0446002C07D0664880690028B3
:1095000003D064488169204688470AE06148406981
:10951000002806D0012000905E48416968468847CF
:1095200000BF00205C49087038BD10B50446A08813
:1095300055490880082221460E315A4802F070FA37
:109540000020534908705348C089002801D1FFF713
:10955000ADFF10BD70B505460020C0434A490880E4
:1095600000204B4908704E48006801F0B1FF0446E6
:10957000002C07D047488069002803D045488169FE
:109580002046884770BD70B50546AC1D208841490E
:10959000C989884220D1208B02281DD100BF00BF7D
:1095A000A17EE27E120211430846C107C90F0029BD
:1095B00002D0FFF77BFF0FE03948006801F088FF19
:1095C0000646002E07D033488069002803D0314872
:1095D00081693046884700BF70BD10B50446082237
:1095E000A11D304802F01CFAFFF760FF10BD10B556
:1095F00004462088102806D0112808D012280ED042
:10960000502810D107E02046FFF78FFF0CE02046DE
:10961000FFF7A0FF08E02046FFF7B5FF04E0204673
:10962000FFF7DBFF00E000BF00BF10BD38B5044608
:1096300008222146134802F0F3F912487ADF054662
:10964000002D1CD11748FFF7ABFE00280BD10120DD
:10965000114908700B490C48008875DF0546012048
:109660000B4908700BE00B484069002806D0012028
:109670000090084841696846884700BF0025284691
:1096800038BD0000002100200A210020FFFF00005B
:1096900008210020AC27002018210020BF930100E2
:1096A000142100200C21002001B505E00098401E87
:1096B00000900348FCF720FD00980028F6D108BD73
:1096C000E7030000002314214143FC4A53541421B2
:1096D000414389184B8001231421414389188B6031
:1096E0000023142141438918CB6014214143891878
:1096F0000B611421414389188B80704710B50020FD
:10970000EF490880EF490870EC49091F087048705C
:109710008870002403E02046FFF7D4FF641C142C5B
:10972000F9D310BDFFB583B004460F461546032696
:10973000E448007800280BD1002D06D106980028B7
:1097400003D10220DF49087002E00120DD490870E2
:10975000DC480078030002F0E1F907FD05314E8492
:10976000BAD7FD00D8484069401C002808D0012223
:109770001207126991B2D44A506902F027F902E047
:10978000012000074069401E01210907096989B2CB
:10979000484302900120000700690004820C012068
:1097A0000007006980B278430146029821DF06462F
:1097B000002E02D10220C3490870D0E0384620DFD5
:1097C0000646002E16D1002D11D1069800280AD188
:1097D0002078042803D10720BA4908700AE0052040
:1097E000B849087006E00420B649087002E003207A
:1097F000B4490870B3E0B4484069401C002808D060
:1098000001221207126991B2AF4A506902F0DEF8E4
:1098100002E0012000074069401E01210907096993
:1098200089B24843012109070290096989B2794345
:1098300008462A46029921DF0646002E10D10698D6
:1098400000280AD12078042803D106209D490870F9
:1098500006E005209B49087002E004209949087041
:109860007DE099484069401C002808D00122120779
:10987000126991B2944A506902F0A8F802E00120FE
:1098800000074069401E01210907096989B2484360
:10989000A900401861884018012109070290096950
:1098A00089B27943AA00891862888818069A0299B1
:1098B00021DF0646002E09D12078042803D1062096
:1098C0008049087002E005207E49087047E00120C9
:1098D0000007006980B27843AB00C018029060882E
:1098E00082082169029821DF0646002E0BD1002D47
:1098F00006D10698002803D107207249087002E0BB
:109900000620704908702AE06F484069401C002812
:1099100008D001221207126991B26B4A506902F015
:1099200055F802E0012000074069401E01210907A7
:10993000096989B24843019001200007006981B29A
:10994000019802F043F8029020DF0646002E04D171
:10995000072000E002E05B49087000E000BF00BFA4
:10996000304607B0F0BDF0B585B00F275348001F53
:1099700000781421484351494418E56820780228AA
:1099800004D0042823D005286FD16FE0206903900C
:109990004B48008886026088801B049003988019D9
:1099A0000390A088801945190121890204988842F2
:1099B00006D2049882082846039921DF074605E06D
:1099C000FF2201322846039921DF074681E0A06883
:1099D00000013E49401800890490A0680001401829
:1099E00040890390A06800014018406802900298E6
:1099F000A84205D10399049848436188884202D05F
:109A0000A06802280DD101200007006981B2284614
:109A100001F0DCFF2A4909884618304620DF074656
:109A200022E001200007006981B2284601F0CEFF44
:109A3000064601200007006980B27043281A80089A
:109A4000019001200007006980B2711C48436188C1
:109A50004919401A8008009031462046009B019A1F
:109A6000FFF760FE074600BF33E031E0012000074A
:109A7000006981B2284601F0A9FF0646A088411975
:109A800001200007006980B27043081A8008049022
:109A9000A08840196188421801200007006980B23F
:109AA000711C4843801A8008039031462046039B6E
:109AB000049AFFF737FE07460BE00000CC27002092
:109AC0002421002027210020001000105C29002004
:109AD00000BF00BF002F02D10120FE498870384628
:109AE00005B0F0BDFFB581B0064617460024F94821
:109AF0004078142837D0F7480078F649497840185C
:109B0000C4B2142C02DB20461438C4B214206043C3
:109B1000F049091D0E5414206043401807611420B9
:109B200060434118029805C8CA60886014206043E9
:109B3000E84A121D8018049941801420604380185F
:109B40000A9981800025101F8078002805D1FFF731
:109B50000AFF0546112D00D10025DE484078401C43
:109B6000DC49487000E00425284605B0F0BD10B57A
:109B70000024D8484078002807DDFFF7F4FE0446AB
:109B8000002C02D0112C00D10024204610BDF8B5C5
:109B90000546D048007814214843CE49091D0E5C83
:109BA000081F007814214843CA49091D40188068DD
:109BB000022802D1C84804680AE0C6480078142187
:109BC0004843C449091D401880680001C3490C5826
:109BD000C048007814214843BE49091D40184088F8
:109BE000091F0090097814225143BA4A121D89189E
:109BF0000B69111F097814225143B64A121D8918A6
:109C0000084608302A463146A047F8BDFEB505464D
:109C10000026B048807801287ED10020AD498870A8
:109C2000AF480078082811D1022D03D10020AC499B
:109C3000087002E00020AB490870FFF798FF064665
:109C4000002E02D03046FFF7A2FFFEBD022D02D04B
:109C5000032D79D174E09F480078142148439D4931
:109C6000091D4418A0480088401C9F49088020789E
:109C7000022807D10846008880026188884201DBFB
:109C8000012000E0002007462078052805D19448EF
:109C90000078072801D1012000E000200290207800
:109CA000042805D18E480078072801D1012000E062
:109CB00000200190207804280BD18B480088800276
:109CC0006188884205DB86480078002801D10120A0
:109CD00000E0002000900298002807D10198002899
:109CE00004D10098002801D1002F1FD000207C490A
:109CF00008703046FFF74BFF76490878FFF7E2FC23
:109D000000207949088073484078401E71494870A6
:109D100008460078401C00E019E00870084600780A
:109D2000142803DB0846007814380870FFF71FFF7B
:109D30000646002E02D03046FFF729FF05E003E07B
:109D40000D20FFF724FF00E000BF00BF00BF00BFF1
:109D50007BE710B5FFF7D2FC002064490880644817
:109D60004069401C002808D001221207126991B2F4
:109D70005F4A506901F02AFE02E0012000074069B5
:109D8000801E01210907096989B2484359490860C1
:109D900000205549088000BF0DE0002102014F4B13
:109DA00099500201D21811810201D2189181020149
:109DB000D2185181401C0028EFD00020464908608D
:109DC0008880012047490870002045490870002418
:109DD000204610BDF8B504460D4600BF4148007846
:109DE000002801D10820F8BD00BF002C01D10E20B1
:109DF000F9E7002D01D10E20F5E72068002801D1F8
:109E00000E20F0E7A08801210907096989B288427C
:109E100002DCA088012801DA0720E4E7E0880028B6
:109E200030D033484069401C002808D00122120776
:109E3000126991B22E4A506901F0C8FD02E001207A
:109E400000074069401E01210907096989B248439A
:109E5000E188A2885143274A12688918884211D3A1
:109E6000E088A188484301210907096989B288422D
:109E70000ADDA18801221207126990B201F0BCFD2F
:109E8000002901D00720AEE720798007800F002845
:109E900001D00720A7E715480088012801D1042038
:109EA000A1E71248008828601248006868600F49DE
:109EB00009880901094A8918686848600B490988B6
:109EC000090120685050A0880849098809018918AB
:109ED000088111E0C8270020282100205C290020EB
:109EE0002721002026210020242100201C210020E1
:109EF0000010001020210020E088FE490988090197
:109F0000891848810027A688E1884E4300BF781C45
:109F100087B201200007006980B2B04205D201205B
:109F20000007006980B2361A00E000260120000711
:109F3000006980B2F04909684018EF4908600120C3
:109F40000007006980B2B042E1D9EA480088000108
:109F5000EA4940188781E7480088401CE5490880A5
:109F6000002040E73CB5034600BFE54800780028E4
:109F700001D108203CBD00BF002B01D10E20F9E724
:109F8000002A01D10E20F5E71868002805D11868CD
:109F90000001DA4C2058002801D10720EAE75C686C
:109FA000186801940090019C18680001D34D401975
:109FB0000089484320180190009800012C460019A0
:109FC0004089009C2401641924896043009C240179
:109FD000641964680019019CA04201D80720C9E7F0
:109FE000019C0098546010600020C3E7F8B5044657
:109FF0000E4615461F4600BFC1480078002801D113
:10A000000820F8BD00BF002E01D10E20F9E7002C7A
:10A0100001D10E20F5E72068002805D12068000155
:10A02000B6490858002801D10720EAE72068000156
:10A03000B2494018408921680901B04A8918098944
:10A0400048432168090189184968401861688842B5
:10A0500001D80720D5E7002D06D020680001A749C8
:10A0600040180089A84201DA0720CAE7E8192168E8
:10A070000901A24A89180989884201DD0720C0E741
:10A08000304600F0D4F9002804D0384600F0CFF96B
:10A09000002801D11020B4E7606800F0C8F900285A
:10A0A00001D11020ADE72B46324621460220009711
:10A0B000FFF718FDA5E7F8B504460E4615461F46FE
:10A0C00000BF8F480078002801D10820F8BD00BFEC
:10A0D000002E01D10E20F9E7002C01D10E20F5E76A
:10A0E0002068002805D1206800018449085800280C
:10A0F00001D10720EAE72068000180494018408923
:10A10000216809017D4A89180989484321680901A4
:10A110008918496840186168884201D80720D5E746
:10A12000002D06D020680001744940180089A8421B
:10A1300001DA0720CAE7E819216809016F4A89187E
:10A140000989884201DD0720C0E7304600F06FF939
:10A15000002804D0384600F06AF9002801D1102008
:10A16000B4E7606800F063F9002801D11020ADE782
:10A170002B463246214605200097FFF7B3FCA5E7A2
:10A18000FFB581B00C4615461E4600BF5C480078FE
:10A19000002802D1082005B0F0BD00BF002C01D17D
:10A1A0000E20F8E70198002801D10E20F3E720687F
:10A1B000002805D12068000150490858002801D125
:10A1C0000720E8E7206800014C49401840892168D1
:10A1D00009014A4A891809894843216809018918EF
:10A1E000496840186168884201D80720D3E7002DEC
:10A1F00006D020680001414940180089A84201DAD0
:10A200000720C8E7A819216809013C4A891809896B
:10A21000884201DD0720BEE7019800F008F9002818
:10A2200004D0304600F003F9002801D11020B2E735
:10A23000606800F0FCF8002801D11020ABE76068EE
:10A2400081192A46019801F0EBFB00952068000176
:10A250002A490F58002203212046019BB8470020BD
:10A2600099E7F8B504460D4600BF25480078002858
:10A2700001D10820F8BD00BF002C01D10E20F9E764
:10A280002068002805D1206800011C4908580028D2
:10A2900001D10720EEE720680001184940184089E5
:10A2A00021680901154A891809894843216809016B
:10A2B0008918496840186168884201D80720D9E7A1
:10A2C000606800F0B4F8002801D11020D2E72368BC
:10A2D0001B010A4FDB1962685B68D01A2268120101
:10A2E0003B46D218118901F071FB00290AD00720E2
:10A2F000C0E700001C210020202100205C29002054
:10A300002621002000202B460246214600900420F2
:10A31000FFF7E8FB06463046ACE7014600BF484879
:10A320000078002801D10820704700BF002901D122
:10A330000E20F9E74348407808600020F4E7024621
:10A3400000BF3F480078002801D10820704700BFB7
:10A35000002A01D10E20F9E7002901D10E20F5E7EE
:10A360001068002801D10E20F0E737480068002867
:10A3700001D00420EAE702200860334B106818601F
:10A380000020E3E7F8B504460D4617461E4600BF19
:10A390002B480078002801D10820F8BD00BF002D0F
:10A3A00001D10E20F9E7002C01D10E20F5E720683D
:10A3B000022803D124480068002801D10720ECE7D7
:10A3C000284600F034F8002804D0304600F02FF87A
:10A3D000002801D11020E0E73B462A462146022012
:10A3E0000096FFF77FFBD8E7F8B504460D4600BF9F
:10A3F00013480078002801D10820F8BD00BF002CC8
:10A4000001D10E20F9E72068022803D10E48006828
:10A41000002801D10720F0E700202B460246214604
:10A4200000900420FFF75EFB06463046E5E7014654
:10A430008807800F002801D1012070470020FCE729
:10A4400026210020C82700202821002010B504461E
:10A450002046FBF761FE10BDF0B502460C46002019
:10A4600037E001238340194623460B40002B2FD0B1
:10A47000D5680D40002D05D101235B04D5680D433F
:10A48000D56004E003231B04D5688D43D560052502
:10A490002D0707263602AD198600AD59032636046E
:10A4A000B5430526360707273F02F6198700F55101
:10A4B00005252D0707263602AD198600AD591D4327
:10A4C0000526360707273F02F6198700F55100BF1A
:10A4D000401C2028C5D3F0BDF0B585B0EF48056914
:10A4E0000020EF49C86300263FE014207043ED4987
:10A4F000096844180120B040EB4909680840002869
:10A5000031D0E068C04368402168084007463946BA
:10A510002046FFF7A1FFE1480069684003900398D7
:10A5200000280ED003980543E068C04368402168C6
:10A530000840009020460099FFF78EFF00980743DF
:10A5400000BFA068A84338400190606828403840A8
:10A550000290019902980843002803D022690199CA
:10A560000298904700BF701CC6B2D048007886425F
:10A57000BBDB05B0F0BD10B50146002029E0142278
:10A580004A43C84B1B689A58012383401A40002A4B
:10A590001ED00522120707231B02D2188300D258AF
:10A5A00003231B049A4305231B07072424021B19BA
:10A5B00084001A510522120707231B02D2188300B8
:10A5C000D25805231B07072424021B1984001A51A3
:10A5D000401C2028D3D310BD70B505460C46002C76
:10A5E00001D1072070BD20468107890F002901D1C4
:10A5F000012100E00021002901D10720F2E7A9484C
:10A600000460AB4805700020A8490870A64908609E
:10A61000A7480078142250430146A248006801F080
:10A6200018FA0020C043A349886006200121814018
:10A63000A14A116000BF012100F0F9F806200121B4
:10A6400081409E4A116000BF0020CBE7F8B5044668
:10A650000D4616461F4693480068002801D1082081
:10A66000F8BD002F01D10720FAE790480078904903
:10A670000978884201DB0420F2E7284630438B4901
:10A68000097814225143874A12685050874800784D
:10A69000142148438349096840184560834800787D
:10A6A000142148437F490968401886607F48007834
:10A6B000142148437B490968401807617B480078AA
:10A6C00020707A480078401C784908702078FFF79D
:10A6D00052FF0020C4E7F0B5024672480068002827
:10A6E00001D10820F0BD71480078824201DB0720CB
:10A6F000F8E700206A4BD863684804696A48006834
:10A70000002802D158066B4B586001209040664BE0
:10A710001B681843644B1860002314205043614D9C
:10A720002D684019C360002142E001238B40184688
:10A73000142353435B4D2D68EB580340002B36D058
:10A7400025460540002D02D003231B040EE0012303
:10A750005B0414255543534E3668AD19ED68054327
:10A76000142656434F4F3F68F619F56005252D070F
:10A7700007263602AD198E00AD5903263604B543BF
:10A780000526360707273F02F6198F00F5510525E4
:10A790002D0707263602AD198E00AD591D4305263B
:10A7A000360707273F02F6198F00F55100BF491CF5
:10A7B0002029BAD3002095E710B50446394800682F
:10A7C000002801D1082010BD38480078844201DB00
:10A7D0000720F8E72046FFF7CEFE0120A0403249CF
:10A7E00009688143304801600068002803D10120D6
:10A7F000C007304988600020E5E710B502462948C7
:10A800000068002801D1082010BD28480078824245
:10A8100001DB0720F8E714205043224C2468031979
:10A820001E4800691C68204008600020ECE710B555
:10A83000002819DA224A03071B0F083B9B089B00DC
:10A84000D2588307DC0EFF23A3409A438B071B0ECD
:10A850008407E40EA3401A43194B0407240F083C55
:10A86000A408A4001A5118E0144A03231B02D218AA
:10A8700083089B00D2588307DC0EFF23A3409A4332
:10A880008B071B0E8407E40EA3401A430B4B0324D3
:10A8900024021B198408A4001A5110BD00050050A1
:10A8A0004061004038210020302100203521002067
:10A8B000342100200063004080E200E000E100E07D
:10A8C0001CED00E030B50346481CC004040C1046E3
:10A8D0008507AD0F002D01D1012500E00025002DD9
:10A8E00001D1072030BD7A4802601019794D2860E7
:10A8F0000020794D2870794D287079480380794877
:10A9000001800020EEE7F7B584B00C46744800885B
:10A9100084426BDC744D0020039000F0A4F8029098
:10A920000298012814D003A82EDF0746022F01D178
:10A9300072B60CE000BF0197019F002F06D000BF48
:10A94000002211460198FBF732FC00BF00BF00BF98
:10A950006148007800F0B1F860490978884206D073
:10A960005D480578007800F0A8F85B490870029807
:10A97000012814D062B66846007B2FDF0746022FFD
:10A980000CD000BF0197019F002F06D000BF00220E
:10A9900011460198FBF70BFC00BF00BF00BF5248F7
:10A9A000854221D0E9004A4A06981268505004981E
:10A9B000002811D0002C0FDD494909886943454A18
:10A9C000126888182246049901F02AF8E8004049E4
:10A9D00009684018848005E00020E9003C4A1268BC
:10A9E00089188880002600E0042600E00926304609
:10A9F00007B0F0BDF8B505460E4617460520009095
:10AA0000354800783549097888421BD033480478A6
:10AA1000007800F052F831490870314800886043EE
:10AA20002C49096840182860E00029490968401845
:10AA300080883080E0002649096808583860002086
:10AA4000009000BF0098F8BD0EB504E0684681880C
:10AA5000009A029890476A4601A902A8FFF7CAFF28
:10AA60000028F3D00EBD10B520484068C105C90DBF
:10AA7000002920D00A46103A50B200280DDA1B4BAC
:10AA80001C330407240F083CA408A4001B598407A6
:10AA9000E40EE3401B069B0F0BE0154B032424023E
:10AAA0001B198408A4001B598407E40EE3401B060D
:10AAB0009B0FD8B210BD0420FCE70146094800886E
:10AAC000814201DA481C00E00020C0B2704700005B
:10AAD0003C2100204021002045210020442100206D
:10AAE0004621002048210020FFFF000000ED00E08B
:10AAF00000E100E010B5002819DAF74A03071B0F40
:10AB0000083B9B089B00D2588307DC0EFF23A34021
:10AB10009A438B071B0E8407E40EA3401A43EE4BA7
:10AB20000407240F083CA408A4001A5118E0EB4ABB
:10AB300003231B02D21883089B00D2588307DC0E24
:10AB4000FF23A3409A438B071B0E8407E40EA34008
:10AB50001A43E24B032424021B198408A4001A514F
:10AB600010BD10B50446DE48846003211120FFF7B4
:10AB7000C1FF10BD10B501200004DA494860D94971
:10AB800040394860112000F0EEFC112000F0DDFC9F
:10AB90000120D54908602F20FBF7E0FA0120D349B6
:10ABA000087010BD10B5112001218140CB4A8032C0
:10ABB000116000BF01200004CA498860C9494039BA
:10ABC00088600120C84948602F20FBF7C7FA0120A0
:10ABD000C54988600020C64908602F20FBF7BEFAEF
:10ABE0000020C249087010BDF0B502462420504331
:10ABF000C04B1B68C118C0480068401C002802D127
:10AC0000BD48026059E0BC484B680068242460439A
:10AC1000B84C246800194068834217D8B6480068C9
:10AC200024235843B34B1B68C01840684B68C31AB1
:10AC3000B148006824246043AE4C24680019436086
:10AC4000AD4800680862AC48026036E04B68AA4D27
:10AC50002C6828680DE024254543A64E3668AD19BA
:10AC60006D685B1B044624254543A24E3668AD192A
:10AC7000286A451C002D07D0242545439D4E366883
:10AC8000AD196D689D42E6D3451C002D0CD02425DE
:10AC90004543984E3668AD196D68EE1A2425454334
:10ACA000944F3F68ED196E604B6008622425654340
:10ACB000904E3668AD192A6200BFF0BD70B50246ED
:10ACC0008D4C2168084609E0904200D109E0014618
:10ACD00024244443874D2D686419206A441C002CA9
:10ACE000F2D100BF441C002C00D170BD814217D1AD
:10ACF000814C246824256C437E4D2D686419246A98
:10AD00007D4D2C602C462468641C002C08D1012445
:10AD1000754DAC600024764D2C600124774D2C706D
:10AD200024244443734D2D686419636824244443E8
:10AD3000704D2D686419256A24244C436D4E366885
:10AD4000A419256224244C436A4D2D686419206A95
:10AD5000441C002C0CD024244443664D2D686419F7
:10AD60006468E51824244443624E3668A41965607B
:10AD700000BFBAE710B5112000F0EEFB10BD10B512
:10AD8000142000F0E9FB10BD70B504465C48006873
:10AD9000002812D05A4AE169A06912689047054616
:10ADA00000BF2E46002E06D000BF002211463046BE
:10ADB000FBF7FDF900BF00BF02E0A169E069884729
:10ADC00070BDF8B54C480068401C00283AD00027F8
:10ADD00000F0FBFB044646480168204600F0F8FB03
:10ADE00006464548056811E0242068434149096842
:10ADF00044186068B04200D90BE06068361A606899
:10AE0000C719256A2046FFF7BFFF00BF681C00284E
:10AE1000EAD100BF3B4800783B490978884209D114
:10AE200039480078401CC0B237490870022801D167
:10AE30000020087034480078800034490F50FFF734
:10AE40009EFF00BFF8BD01462E4800782E4A1278BA
:10AE500090421DD02B480078401C2A4A10701046A2
:10AE60000078022801D10020107026480078800068
:10AE7000264A105808601E4A0868126880181C4A42
:10AE80001060104600680002000A10600120704740
:10AE90000020086000BFFAE7FEB51748006801907F
:10AEA0001B480078009061E00098C00019490968CB
:10AEB0004418257856E01820684361680F18681C0C
:10AEC000C5B2A078A84200D100253878022823D046
:10AED000032844D12FE000001CED00E000E100E079
:10AEE0000015014040130140001001407421002072
:10AEF00060210020502100205C21002075210020CD
:10AF0000702100206C2100206D2100206421002090
:10AF10005421002058210020242178684843F94911
:10AF200009684618307D002804D07868FFF7C6FE0F
:10AF30000020307514E00CE0F349096824225143E5
:10AF4000F04A1268881800210175EF4A016A116001
:10AF500000BFED480068401C0028EDD100E000BFB4
:10AF600000BF00BF6078A842A5D100BF0098411E75
:10AF7000C9B20091002897D1E34801680198814245
:10AF800001D00120FEBD0020FCE7F0B503460024FF
:10AF900026E0DD4E366824277E43DA4F3F68F019FD
:10AFA00046689E4203D94668F61A46601DE0466828
:10AFB0009B1B46683419002646600675D24E3568DC
:10AFC000D14F066A3E600669002E08D00E1936027F
:10AFD000360A86600669C66016680662156000BF9C
:10AFE000C9480068401C0028D3D100BFF0BDFEB5A1
:10AFF0000746C54800680290C4480078019071E097
:10B000000198C000C2490968451863E0781C00280F
:10B0100007D03E4624207043BA4909684418276A7D
:10B0200029E02978182359436A6850182978491C5F
:10B0300029702978AA78914201D1002129704668A7
:10B0400024217143AF4A12688C180178012902D17A
:10B05000217D002900D03DE08168A160C168E160E8
:10B06000016921614169E161AA490978002901D09A
:10B070000021A16000BFA849A0680968401A000229
:10B08000000AA649884208D2A349A068096800F0CE
:10B090009FFAE1684018606011E09F48A16800686D
:10B0A00000F096FA0090E1680098814204D9E168C6
:10B0B0000098081A606001E00020606000BF002076
:10B0C000A060E06001202075801E20623046FFF7FE
:10B0D0008BFD00BF781C002898D1287869788842B9
:10B0E00094D100BF0198411EC9B20191002887D1B7
:10B0F000854801680298814201D00120FEBD0020F0
:10B10000FCE7FEB580480068401C002834D07E482B
:10B110000068242148437B4909684018456800F0CD
:10B1200054FA01907C4804682146019800F050FAD6
:10B13000C61C7B480078002801D1FFF71BFDAE42FA
:10B1400001D2284600E0304604192402240A204691
:10B150007449086000BF00F038FA00900199009827
:10B1600000F036FAC71C2046019900F031FA8742F8
:10B1700001D9FFF7FFFD01E0FFF714FDFEBDFEB5AD
:10B180000020C0430190644804685F48076868462F
:10B19000FFF759FE0546FFF77FFE0646002D05D056
:10B1A00001AA21460098FFF7F0FE01260198FFF75B
:10B1B0001EFF002800D00126002E02D03846FFF7DF
:10B1C000A0FF002053490870FEBD4170704770B564
:10B1D00002460B465078411C9078884200D10021ED
:10B1E0001078884201D1002070BD1960507818266F
:10B1F000704355682C182046F6E7FFB581B0054628
:10B200000E461746E900424A126888186946FFF759
:10B21000DEFF0446002C02D1042005B0F0BD012061
:10B220002070666000F0D1F9A060E76004982061AA
:10B230000A986061E900364A126888180099FFF799
:10B24000C4FFFFF79CFD0020E7E7F8B504460E4673
:10B25000E1002F4A126888186946FFF7B8FF0546D3
:10B26000002D01D10420F8BD022028706E60E1009D
:10B27000274A126888180099FFF7A7FFFFF77FFD9C
:10B280000020F0E738B50446E100214A126888182A
:10B290006946FFF79CFF0546002D01D1042038BD0B
:10B2A00003202870001F6860E100194A126888189E
:10B2B0000099FFF78AFFFFF762FD0020EFE710B566
:10B2C0000020194908600021174841608160C16071
:10B2D00000201549403908604860FFF772FD10BD35
:10B2E00010B5FCF733F9FFF74AFF10BDFFB581B089
:10B2F0000E4617461C4620468107890F002915D1A6
:10B30000012114E0502100205C2100205421002064
:10B31000582100207521002060210020FFFF7F00C0
:10B3200074210020401501404011014000210029F6
:10B3300002D1072005B0F0BD002C01D10720F9E7AC
:10B34000FFF730FCA5490A980860A5480670A54893
:10B35000046000250CE0002124206843A14A126803
:10B360001154242068439F4A1268801801756D1C8F
:10B37000B542F0DB24207043041903209A49087079
:10B380009A480460183400250CE0E900974A1268D6
:10B39000881800210170417087704460182179433A
:10B3A0000C196D1C032DF0DB0020C0439049086090
:10B3B00000209049087090490870142000F0D3F8DC
:10B3C00003211420FFF796FB142000F0BEF801982B
:10B3D000FFF7C7FB00F0F9F8884908600020A9E7EB
:10B3E00070B503460C467F480068002801D108204C
:10B3F00070BD002A01D10720FAE7002B01D10720F8
:10B40000F6E700211CE024204843764D2D68285C97
:10B41000002814D1012524204843724E3668355443
:10B42000242048436F4D2D68401944702420484320
:10B430006C4D2D684019826119600020D8E7491CC5
:10B44000674800788142DEDB0420D1E710B500F0C8
:10B4500092F8012802D0032804D101E0002403E07F
:10B46000012401E0022400BF00BF204610BDFEB54C
:10B4700004460D4616465B480068002801D10820A6
:10B48000FEBD57480078844201D2052D01D2072025
:10B49000F6E72420604353490968085C012801D07D
:10B4A0000820EDE7242060434E49096840184078A1
:10B4B000012801D1284600E000200746FFF7C6FF1B
:10B4C0003B462A46214600960190FFF796FED7E7B5
:10B4D00070B5044643480068002801D1082070BDBB
:10B4E0003F480078844201D30720F8E724206043D6
:10B4F0003C490968085C012801D00820EFE7FFF704
:10B50000A5FF05462146FFF7A0FEE8E710B5354840
:10B510000068002801D1082010BDFFF797FF0446FE
:10B52000FFF7B0FEF8E710B5044600F04EF82060D3
:10B53000002010BD70B505460E461446314628461B
:10B5400000F046F82060002070BDC206D20E012136
:10B5500091402B4A11607047C206D20E01219140E2
:10B56000284A11607047C206D20E01219140254A37
:10B5700080321160704710B523484068C105C90D7D
:10B58000002920D00A46103A50B200280DDA1E4B8E
:10B590001C330407240F083CA408A4001B5984078B
:10B5A000E40EE3401B069B0F0BE0154B0324240223
:10B5B0001B198408A4001B598407E40EE3401B06F2
:10B5C0009B0FD8B210BD0420FCE7104840687047BC
:10B5D0000246501A0002000A704700007021002045
:10B5E0004C2100205021002054210020582100200F
:10B5F0005C2100206C2100206D21002060210020B2
:10B6000000E100E000E200E000ED00E00015014094
:10B6100070B503460C46002A01D10D4D00E0158897
:10B620002846002110E0051206023543A8B25D5CF1
:10B63000684005062D0F684005034540A8B2050681
:10B640002D0D6D006840491CA142ECD370BD000077
:10B65000FFFF0000002073490870734873490860B9
:10B660000420486000208860C860086148618861E3
:10B670007047002070470246002A01D10E20704713
:10B6800068480078002806D10120664B1870684889
:10B690001060002100E004210846F0E70020614925
:10B6A0000870704730B50346002901D10E2030BD27
:10B6B000002008605D484068002827D04B20C0006B
:10B6C000834221D859484068401E584C606020464B
:10B6D000C068401CE0602046046800699725AD0002
:10B6E00068432018086051488069504C257C01242B
:10B6F000AC4020434D4CA0612046007C401C80079C
:10B70000800F2061002202E00C2200E0042210469B
:10B71000CDE730B50346454CA468002C3BD0102043
:10B72000424C247D414D2D7A641BA107890F0A46A6
:10B7300000BF3E4C25689724A4004C432C199C4222
:10B7400008D13A4CA46901258D406C40374DAC615D
:10B75000002006E04C1CA107890F344C64698C4220
:10B76000E7D100BF0BE0314CA468641E2F4DAC60E4
:10B770002C466468641C6C604C1CA207920F2B4C16
:10B78000A469012595402C40002C05D1274CA468C4
:10B79000002CE8D100E0042030BD01462348007CA5
:10B7A000401E8207920F2148036897208000504373
:10B7B0001818FF30FF30023081650020704730B527
:10B7C0000246002A01D0002901D10E2030BD1748C1
:10B7D000C068002823D01548C068401E134CE060A4
:10B7E00020468068401CA060204604684069972578
:10B7F000AD006843201810600C4804684069684335
:10B800002018FF30FF300230806D08600748007D4F
:10B81000401C8007800F054C6061002300E004237A
:10B820001846D3E7762100206C290020DC32002066
:10B83000F832002070B506460C46154629462046CB
:10B84000C046C04670BDF8B559480078002800D100
:10B85000F8BD58480068002801D1012000E0002010
:10B86000054655480068002801D1012000E000206D
:10B87000064600BF002D14D1684651DF0446052C52
:10B8800001D101250CE0002C06D000BF002211469A
:10B890002046FAF78CFC03E046490098096888477F
:10B8A00000BF002E1AD145480088009069464448E0
:10B8B000006861DF0446052C01D101260DE0002C53
:10B8C00006D000BF002211462046FAF770FC04E0C3
:10B8D0003B48006838490968884700BF002D02D0FE
:10B8E000002E00D000E0C5E700BF00BFB0E7FFB505
:10B8F00081B00C4616461F46002C02D1072005B029
:10B90000F0BD20468107890F002901D1012100E007
:10B910000021002901D10720F1E7294804602748C8
:10B920000680284807602849019810DF0546002D49
:10B9300001D02846E3E701201D490870162026DFC4
:10B94000DDE710B511DF0446002C01D0012000E036
:10B95000002017490870204610BD0146002901D17A
:10B960000E207047144801600020FAE701460029C4
:10B9700001D10E2070470F4801600020FAE770B532
:10B9800010480068002810D00E4800688047044620
:10B9900000BF2546002D06D000BF002211462846D4
:10B9A000FAF705FC00BF00BF01E0FFF74CFF70BDD8
:10B9B0007C2100208C21002088210020842100206F
:10B9C000802100207821002035B8010030B50B46D9
:10B9D000014600202022012409E00D46D5409D4269
:10B9E00005D31D469540491B2546954040191546EF
:10B9F000521E002DF1DC30BD70B500242546002814
:10BA000001DA01244042002901DA01254942FFF709
:10BA1000DDFFAC4200D04042002C00D0494270BD56
:10BA200003460B439B0703D009E008C9121F08C057
:10BA3000042AFAD203E00B780370401C491C521E02
:10BA4000F9D27047D2B201E00270401C491EFBD20D
:10BA500070470022F6E710B513460A460446194619
:10BA6000FFF7F0FF204610BD421C0178401C002962
:10BA7000FBD1801A70470000064C0125064E05E0F8
:10BA8000E36807CC2B430C3C98471034B442F7D3FF
:10BA9000FAF71AFB48BD010068BD010070B58C18AB
:10BAA0000578401C6B075B0F01D10378401C2A11FD
:10BAB00006D10278401C03E006780E70401C491C39
:10BAC0005B1EF9D12B0705D40023521E0DD40B7039
:10BAD000491CFAE70378401CCB1A921C03E01D783E
